{
  "_format": "hh-sol-artifact-1",
  "contractName": "PancakeZapV1",
  "sourceName": "contracts/PancakeZapV1.sol",
  "abi": [
    {
      "inputs": [
        {
          "internalType": "address",
          "name": "_WBNBAddress",
          "type": "address"
        },
        {
          "internalType": "address",
          "name": "_pancakeRouter",
          "type": "address"
        },
        {
          "internalType": "uint256",
          "name": "_maxZapReverseRatio",
          "type": "uint256"
        }
      ],
      "stateMutability": "nonpayable",
      "type": "constructor"
    },
    {
      "anonymous": false,
      "inputs": [
        {
          "indexed": true,
          "internalType": "address",
          "name": "tokenAddress",
          "type": "address"
        },
        {
          "indexed": false,
          "internalType": "uint256",
          "name": "amountTokens",
          "type": "uint256"
        }
      ],
      "name": "AdminTokenRecovery",
      "type": "event"
    },
    {
      "anonymous": false,
      "inputs": [
        {
          "indexed": false,
          "internalType": "uint256",
          "name": "maxZapReverseRatio",
          "type": "uint256"
        }
      ],
      "name": "NewMaxZapReverseRatio",
      "type": "event"
    },
    {
      "anonymous": false,
      "inputs": [
        {
          "indexed": true,
          "internalType": "address",
          "name": "previousOwner",
          "type": "address"
        },
        {
          "indexed": true,
          "internalType": "address",
          "name": "newOwner",
          "type": "address"
        }
      ],
      "name": "OwnershipTransferred",
      "type": "event"
    },
    {
      "anonymous": false,
      "inputs": [
        {
          "indexed": true,
          "internalType": "address",
          "name": "tokenToZap",
          "type": "address"
        },
        {
          "indexed": true,
          "internalType": "address",
          "name": "lpToken",
          "type": "address"
        },
        {
          "indexed": false,
          "internalType": "uint256",
          "name": "tokenAmountIn",
          "type": "uint256"
        },
        {
          "indexed": false,
          "internalType": "uint256",
          "name": "lpTokenAmountReceived",
          "type": "uint256"
        },
        {
          "indexed": true,
          "internalType": "address",
          "name": "user",
          "type": "address"
        }
      ],
      "name": "ZapIn",
      "type": "event"
    },
    {
      "anonymous": false,
      "inputs": [
        {
          "indexed": true,
          "internalType": "address",
          "name": "token0ToZap",
          "type": "address"
        },
        {
          "indexed": true,
          "internalType": "address",
          "name": "token1ToZap",
          "type": "address"
        },
        {
          "indexed": false,
          "internalType": "address",
          "name": "lpToken",
          "type": "address"
        },
        {
          "indexed": false,
          "internalType": "uint256",
          "name": "token0AmountIn",
          "type": "uint256"
        },
        {
          "indexed": false,
          "internalType": "uint256",
          "name": "token1AmountIn",
          "type": "uint256"
        },
        {
          "indexed": false,
          "internalType": "uint256",
          "name": "lpTokenAmountReceived",
          "type": "uint256"
        },
        {
          "indexed": true,
          "internalType": "address",
          "name": "user",
          "type": "address"
        }
      ],
      "name": "ZapInRebalancing",
      "type": "event"
    },
    {
      "anonymous": false,
      "inputs": [
        {
          "indexed": true,
          "internalType": "address",
          "name": "lpToken",
          "type": "address"
        },
        {
          "indexed": true,
          "internalType": "address",
          "name": "tokenToReceive",
          "type": "address"
        },
        {
          "indexed": false,
          "internalType": "uint256",
          "name": "lpTokenAmount",
          "type": "uint256"
        },
        {
          "indexed": false,
          "internalType": "uint256",
          "name": "tokenAmountReceived",
          "type": "uint256"
        },
        {
          "indexed": true,
          "internalType": "address",
          "name": "user",
          "type": "address"
        }
      ],
      "name": "ZapOut",
      "type": "event"
    },
    {
      "inputs": [],
      "name": "MAX_INT",
      "outputs": [
        {
          "internalType": "uint256",
          "name": "",
          "type": "uint256"
        }
      ],
      "stateMutability": "view",
      "type": "function"
    },
    {
      "inputs": [],
      "name": "MINIMUM_AMOUNT",
      "outputs": [
        {
          "internalType": "uint256",
          "name": "",
          "type": "uint256"
        }
      ],
      "stateMutability": "view",
      "type": "function"
    },
    {
      "inputs": [],
      "name": "WBNB",
      "outputs": [
        {
          "internalType": "contract IWETH",
          "name": "",
          "type": "address"
        }
      ],
      "stateMutability": "view",
      "type": "function"
    },
    {
      "inputs": [
        {
          "internalType": "address",
          "name": "_token0ToZap",
          "type": "address"
        },
        {
          "internalType": "address",
          "name": "_token1ToZap",
          "type": "address"
        },
        {
          "internalType": "uint256",
          "name": "_token0AmountIn",
          "type": "uint256"
        },
        {
          "internalType": "uint256",
          "name": "_token1AmountIn",
          "type": "uint256"
        },
        {
          "internalType": "address",
          "name": "_lpToken",
          "type": "address"
        }
      ],
      "name": "estimateZapInRebalancingSwap",
      "outputs": [
        {
          "internalType": "uint256",
          "name": "swapAmountIn",
          "type": "uint256"
        },
        {
          "internalType": "uint256",
          "name": "swapAmountOut",
          "type": "uint256"
        },
        {
          "internalType": "bool",
          "name": "sellToken0",
          "type": "bool"
        }
      ],
      "stateMutability": "view",
      "type": "function"
    },
    {
      "inputs": [
        {
          "internalType": "address",
          "name": "_tokenToZap",
          "type": "address"
        },
        {
          "internalType": "uint256",
          "name": "_tokenAmountIn",
          "type": "uint256"
        },
        {
          "internalType": "address",
          "name": "_lpToken",
          "type": "address"
        }
      ],
      "name": "estimateZapInSwap",
      "outputs": [
        {
          "internalType": "uint256",
          "name": "swapAmountIn",
          "type": "uint256"
        },
        {
          "internalType": "uint256",
          "name": "swapAmountOut",
          "type": "uint256"
        },
        {
          "internalType": "address",
          "name": "swapTokenOut",
          "type": "address"
        }
      ],
      "stateMutability": "view",
      "type": "function"
    },
    {
      "inputs": [
        {
          "internalType": "address",
          "name": "_lpToken",
          "type": "address"
        },
        {
          "internalType": "uint256",
          "name": "_lpTokenAmount",
          "type": "uint256"
        },
        {
          "internalType": "address",
          "name": "_tokenToReceive",
          "type": "address"
        }
      ],
      "name": "estimateZapOutSwap",
      "outputs": [
        {
          "internalType": "uint256",
          "name": "swapAmountIn",
          "type": "uint256"
        },
        {
          "internalType": "uint256",
          "name": "swapAmountOut",
          "type": "uint256"
        },
        {
          "internalType": "address",
          "name": "swapTokenOut",
          "type": "address"
        }
      ],
      "stateMutability": "view",
      "type": "function"
    },
    {
      "inputs": [],
      "name": "maxZapReverseRatio",
      "outputs": [
        {
          "internalType": "uint256",
          "name": "",
          "type": "uint256"
        }
      ],
      "stateMutability": "view",
      "type": "function"
    },
    {
      "inputs": [],
      "name": "owner",
      "outputs": [
        {
          "internalType": "address",
          "name": "",
          "type": "address"
        }
      ],
      "stateMutability": "view",
      "type": "function"
    },
    {
      "inputs": [],
      "name": "pancakeRouter",
      "outputs": [
        {
          "internalType": "contract IPancakeRouter02",
          "name": "",
          "type": "address"
        }
      ],
      "stateMutability": "view",
      "type": "function"
    },
    {
      "inputs": [
        {
          "internalType": "address",
          "name": "_tokenAddress",
          "type": "address"
        },
        {
          "internalType": "uint256",
          "name": "_tokenAmount",
          "type": "uint256"
        }
      ],
      "name": "recoverWrongTokens",
      "outputs": [],
      "stateMutability": "nonpayable",
      "type": "function"
    },
    {
      "inputs": [],
      "name": "renounceOwnership",
      "outputs": [],
      "stateMutability": "nonpayable",
      "type": "function"
    },
    {
      "inputs": [
        {
          "internalType": "address",
          "name": "newOwner",
          "type": "address"
        }
      ],
      "name": "transferOwnership",
      "outputs": [],
      "stateMutability": "nonpayable",
      "type": "function"
    },
    {
      "inputs": [
        {
          "internalType": "uint256",
          "name": "_maxZapInverseRatio",
          "type": "uint256"
        }
      ],
      "name": "updateMaxZapInverseRatio",
      "outputs": [],
      "stateMutability": "nonpayable",
      "type": "function"
    },
    {
      "inputs": [
        {
          "internalType": "address",
          "name": "_lpToken",
          "type": "address"
        },
        {
          "internalType": "uint256",
          "name": "_tokenAmountOutMin",
          "type": "uint256"
        }
      ],
      "name": "zapInBNB",
      "outputs": [],
      "stateMutability": "payable",
      "type": "function"
    },
    {
      "inputs": [
        {
          "internalType": "address",
          "name": "_token1ToZap",
          "type": "address"
        },
        {
          "internalType": "uint256",
          "name": "_token1AmountIn",
          "type": "uint256"
        },
        {
          "internalType": "address",
          "name": "_lpToken",
          "type": "address"
        },
        {
          "internalType": "uint256",
          "name": "_tokenAmountInMax",
          "type": "uint256"
        },
        {
          "internalType": "uint256",
          "name": "_tokenAmountOutMin",
          "type": "uint256"
        },
        {
          "internalType": "bool",
          "name": "_isToken0Sold",
          "type": "bool"
        }
      ],
      "name": "zapInBNBRebalancing",
      "outputs": [],
      "stateMutability": "payable",
      "type": "function"
    },
    {
      "inputs": [
        {
          "internalType": "address",
          "name": "_tokenToZap",
          "type": "address"
        },
        {
          "internalType": "uint256",
          "name": "_tokenAmountIn",
          "type": "uint256"
        },
        {
          "internalType": "address",
          "name": "_lpToken",
          "type": "address"
        },
        {
          "internalType": "uint256",
          "name": "_tokenAmountOutMin",
          "type": "uint256"
        }
      ],
      "name": "zapInToken",
      "outputs": [],
      "stateMutability": "nonpayable",
      "type": "function"
    },
    {
      "inputs": [
        {
          "internalType": "address",
          "name": "_token0ToZap",
          "type": "address"
        },
        {
          "internalType": "address",
          "name": "_token1ToZap",
          "type": "address"
        },
        {
          "internalType": "uint256",
          "name": "_token0AmountIn",
          "type": "uint256"
        },
        {
          "internalType": "uint256",
          "name": "_token1AmountIn",
          "type": "uint256"
        },
        {
          "internalType": "address",
          "name": "_lpToken",
          "type": "address"
        },
        {
          "internalType": "uint256",
          "name": "_tokenAmountInMax",
          "type": "uint256"
        },
        {
          "internalType": "uint256",
          "name": "_tokenAmountOutMin",
          "type": "uint256"
        },
        {
          "internalType": "bool",
          "name": "_isToken0Sold",
          "type": "bool"
        }
      ],
      "name": "zapInTokenRebalancing",
      "outputs": [],
      "stateMutability": "nonpayable",
      "type": "function"
    },
    {
      "inputs": [
        {
          "internalType": "address",
          "name": "_lpToken",
          "type": "address"
        },
        {
          "internalType": "uint256",
          "name": "_lpTokenAmount",
          "type": "uint256"
        },
        {
          "internalType": "uint256",
          "name": "_tokenAmountOutMin",
          "type": "uint256"
        }
      ],
      "name": "zapOutBNB",
      "outputs": [],
      "stateMutability": "nonpayable",
      "type": "function"
    },
    {
      "inputs": [
        {
          "internalType": "address",
          "name": "_lpToken",
          "type": "address"
        },
        {
          "internalType": "address",
          "name": "_tokenToReceive",
          "type": "address"
        },
        {
          "internalType": "uint256",
          "name": "_lpTokenAmount",
          "type": "uint256"
        },
        {
          "internalType": "uint256",
          "name": "_tokenAmountOutMin",
          "type": "uint256"
        }
      ],
      "name": "zapOutToken",
      "outputs": [],
      "stateMutability": "nonpayable",
      "type": "function"
    },
    {
      "stateMutability": "payable",
      "type": "receive"
    }
  ],
  "bytecode": "0x60806040523480156200001157600080fd5b50604051620042c5380380620042c5833981016040819052620000349162000102565b6200003f3362000095565b60018055600680546001600160a01b039485166001600160a01b03199182168117909255600280548216909217909155600580549390941692811683179093556003805490931690911790915560045562000142565b600080546001600160a01b038381166001600160a01b0319831681178455604051919092169283917f8be0079c531659141344cd1fd0a4f28419497f9722a3daafe3b4186f6b6457e09190a35050565b80516001600160a01b0381168114620000fd57600080fd5b919050565b60008060006060848603121562000117578283fd5b6200012284620000e5565b92506200013260208501620000e5565b9150604084015190509250925092565b61417380620001526000396000f3fe6080604052600436106101185760003560e01c8063715018a6116100a05780638dd95002116100645780638dd950021461033c578063b421e91e1461035c578063c21ebd071461037c578063e3ceb16b1461039c578063f2fde38b146103af57600080fd5b8063715018a61461027857806382c98b2d1461028d57806384b73115146102ca57806387e3f21c146102ea5780638da5cb5b1461030a57600080fd5b80632f883da4116100e75780632f883da4146101c15780633b0a48bb146102055780633f138d4b146102255780635cb88a3f146102455780635fcbdaed1461025857600080fd5b8063098d32281461014c5780630f4e4e6314610175578063257d9bb81461018b5780632b4652eb146101a157600080fd5b36610147576006546001600160a01b0316331461014557634e487b7160e01b600052600160045260246000fd5b005b600080fd5b34801561015857600080fd5b5061016260001981565b6040519081526020015b60405180910390f35b34801561018157600080fd5b5061016260045481565b34801561019757600080fd5b506101626103e881565b3480156101ad57600080fd5b506101456101bc366004613e95565b6103cf565b3480156101cd57600080fd5b506101e16101dc366004613c54565b610412565b6040805193845260208401929092526001600160a01b03169082015260600161016c565b34801561021157600080fd5b506101e1610220366004613c54565b61087b565b34801561023157600080fd5b50610145610240366004613c29565b610bc7565b610145610253366004613c29565b610c2a565b34801561026457600080fd5b50610145610273366004613d42565b610d11565b34801561028457600080fd5b50610145610ea9565b34801561029957600080fd5b506102ad6102a8366004613b47565b610ebd565b60408051938452602084019290925215159082015260600161016c565b3480156102d657600080fd5b506101456102e5366004613b02565b6114ec565b3480156102f657600080fd5b50610145610305366004613c95565b611588565b34801561031657600080fd5b506000546001600160a01b03165b6040516001600160a01b03909116815260200161016c565b34801561034857600080fd5b50600254610324906001600160a01b031681565b34801561036857600080fd5b50610145610377366004613ba5565b61160d565b34801561038857600080fd5b50600354610324906001600160a01b031681565b6101456103aa366004613cdc565b6116c3565b3480156103bb57600080fd5b506101456103ca366004613ac3565b6117d9565b6103d7611852565b60048190556040518181527fc7e29c44236bfea8bef0d337e382f5f27ec5bc4d425d82437f115f9b59d2ba799060200160405180910390a150565b600080600080866001600160a01b0316630dfe16816040518163ffffffff1660e01b815260040160206040518083038186803b15801561045157600080fd5b505afa158015610465573d6000803e3d6000fd5b505050506040513d601f19601f820116820180604052508101906104899190613ae6565b90506000876001600160a01b031663d21220a76040518163ffffffff1660e01b815260040160206040518083038186803b1580156104c657600080fd5b505afa1580156104da573d6000803e3d6000fd5b505050506040513d601f19601f820116820180604052508101906104fe9190613ae6565b9050816001600160a01b0316866001600160a01b031614806105315750806001600160a01b0316866001600160a01b0316145b6105795760405162461bcd60e51b815260206004820152601460248201527305a61703a20546f6b656e206e6f7420696e204c560641b60448201526064015b60405180910390fd5b600080896001600160a01b0316630902f1ac6040518163ffffffff1660e01b815260040160606040518083038186803b1580156105b557600080fd5b505afa1580156105c9573d6000803e3d6000fd5b505050506040513d601f19601f820116820180604052508101906105ed9190613e52565b506001600160701b031691506001600160701b03169150876001600160a01b0316836001600160a01b031614156107485760008a6001600160a01b03166318160ddd6040518163ffffffff1660e01b815260040160206040518083038186803b15801561065957600080fd5b505afa15801561066d573d6000803e3d6000fd5b505050506040513d601f19601f820116820180604052508101906106919190613ead565b61069b848c61408c565b6106a5919061406c565b90506106b28184846118ac565b600354604051630153543560e21b81526004810183905260248101869052604481018590529199506001600160a01b03169063054d50d49060640160206040518083038186803b15801561070557600080fd5b505afa158015610719573d6000803e3d6000fd5b505050506040513d601f19601f8201168201806040525081019061073d9190613ead565b96508495505061086e565b60008a6001600160a01b03166318160ddd6040518163ffffffff1660e01b815260040160206040518083038186803b15801561078357600080fd5b505afa158015610797573d6000803e3d6000fd5b505050506040513d601f19601f820116820180604052508101906107bb9190613ead565b6107c5838c61408c565b6107cf919061406c565b90506107dc8183856118ac565b600354604051630153543560e21b81526004810183905260248101859052604481018690529199506001600160a01b03169063054d50d49060640160206040518083038186803b15801561082f57600080fd5b505afa158015610843573d6000803e3d6000fd5b505050506040513d601f19601f820116820180604052508101906108679190613ead565b9650839550505b5050505093509350939050565b600080600080846001600160a01b0316630dfe16816040518163ffffffff1660e01b815260040160206040518083038186803b1580156108ba57600080fd5b505afa1580156108ce573d6000803e3d6000fd5b505050506040513d601f19601f820116820180604052508101906108f29190613ae6565b90506000856001600160a01b031663d21220a76040518163ffffffff1660e01b815260040160206040518083038186803b15801561092f57600080fd5b505afa158015610943573d6000803e3d6000fd5b505050506040513d601f19601f820116820180604052508101906109679190613ae6565b9050816001600160a01b0316886001600160a01b0316148061099a5750806001600160a01b0316886001600160a01b0316145b6109da5760405162461bcd60e51b81526020600482015260116024820152705a61703a2057726f6e6720746f6b656e7360781b6044820152606401610570565b600080876001600160a01b0316630902f1ac6040518163ffffffff1660e01b815260040160606040518083038186803b158015610a1657600080fd5b505afa158015610a2a573d6000803e3d6000fd5b505050506040513d601f19601f82011682018060405250810190610a4e9190613e52565b506001600160701b031691506001600160701b03169150896001600160a01b0316846001600160a01b03161415610b1f57829450610a8d8983836118ac565b600354604051630153543560e21b81526004810183905260248101859052604481018490529198506001600160a01b03169063054d50d49060640160206040518083038186803b158015610ae057600080fd5b505afa158015610af4573d6000803e3d6000fd5b505050506040513d601f19601f82011682018060405250810190610b189190613ead565b955061086e565b839450610b2d8982846118ac565b600354604051630153543560e21b81526004810183905260248101849052604481018590529198506001600160a01b03169063054d50d49060640160206040518083038186803b158015610b8057600080fd5b505afa158015610b94573d6000803e3d6000fd5b505050506040513d601f19601f82011682018060405250810190610bb89190613ead565b95505050505093509350939050565b610bcf611852565b610be36001600160a01b0383163383611a31565b816001600160a01b03167f74545154aac348a3eac92596bd1971957ca94795f4e954ec5f613b55fab7812982604051610c1e91815260200190565b60405180910390a25050565b610c32611a94565b600260009054906101000a90046001600160a01b03166001600160a01b031663d0e30db0346040518263ffffffff1660e01b81526004016000604051808303818588803b158015610c8257600080fd5b505af1158015610c96573d6000803e3d6000fd5b505060065460009350610cb792506001600160a01b03169050348585611aee565b604080513481526020810183905291925033916001600160a01b038616916000917fa71185a0ff368de4e9e445d8601c4fbd50d9b674e4e43f5f8feafb8d64a2e13e910160405180910390a450610d0d60018055565b5050565b610d19611a94565b610d2e6001600160a01b0384163385856120fb565b600654600090610d499085906001600160a01b031684612133565b600254604051632e1a7d4d60e01b8152600481018390529192506001600160a01b031690632e1a7d4d90602401600060405180830381600087803b158015610d9057600080fd5b505af1158015610da4573d6000803e3d6000fd5b5050604080516000808252602082019283905293503392508491610dc89190613f15565b60006040518083038185875af1925050503d8060008114610e05576040519150601f19603f3d011682016040523d82523d6000602084013e610e0a565b606091505b5050905080610e505760405162461bcd60e51b81526020600482015260126024820152711093908e881d1c985b9cd9995c8819985a5b60721b6044820152606401610570565b604080518581526020810184905233916000916001600160a01b038916917f20ef8a4c975ec6c340089d8171a0f9c6a6324b11e3ecc4353155186f6c638c28910160405180910390a45050610ea460018055565b505050565b610eb1611852565b610ebb60006126b6565b565b6000806000836001600160a01b0316630dfe16816040518163ffffffff1660e01b815260040160206040518083038186803b158015610efb57600080fd5b505afa158015610f0f573d6000803e3d6000fd5b505050506040513d601f19601f82011682018060405250810190610f339190613ae6565b6001600160a01b0316886001600160a01b03161480610fd35750836001600160a01b031663d21220a76040518163ffffffff1660e01b815260040160206040518083038186803b158015610f8657600080fd5b505afa158015610f9a573d6000803e3d6000fd5b505050506040513d601f19601f82011682018060405250810190610fbe9190613ae6565b6001600160a01b0316886001600160a01b0316145b6110135760405162461bcd60e51b815260206004820152601160248201527005a61703a2057726f6e6720746f6b656e3607c1b6044820152606401610570565b836001600160a01b0316630dfe16816040518163ffffffff1660e01b815260040160206040518083038186803b15801561104c57600080fd5b505afa158015611060573d6000803e3d6000fd5b505050506040513d601f19601f820116820180604052508101906110849190613ae6565b6001600160a01b0316876001600160a01b031614806111245750836001600160a01b031663d21220a76040518163ffffffff1660e01b815260040160206040518083038186803b1580156110d757600080fd5b505afa1580156110eb573d6000803e3d6000fd5b505050506040513d601f19601f8201168201806040525081019061110f9190613ae6565b6001600160a01b0316876001600160a01b0316145b6111645760405162461bcd60e51b81526020600482015260116024820152705a61703a2057726f6e6720746f6b656e3160781b6044820152606401610570565b866001600160a01b0316886001600160a01b031614156111b95760405162461bcd60e51b815260206004820152601060248201526f5a61703a2053616d6520746f6b656e7360801b6044820152606401610570565b600080856001600160a01b0316630902f1ac6040518163ffffffff1660e01b815260040160606040518083038186803b1580156111f557600080fd5b505afa158015611209573d6000803e3d6000fd5b505050506040513d601f19601f8201168201806040525081019061122d9190613e52565b506001600160701b031691506001600160701b03169150856001600160a01b0316630dfe16816040518163ffffffff1660e01b815260040160206040518083038186803b15801561127d57600080fd5b505afa158015611291573d6000803e3d6000fd5b505050506040513d601f19601f820116820180604052508101906112b59190613ae6565b6001600160a01b03168a6001600160a01b031614156113d9576112d8828861408c565b6112e2828a61408c565b116112ee5760006112f1565b60015b92506113008888848487612706565b9450821561139a57600354604051630153543560e21b81526004810187905260248101849052604481018390526001600160a01b039091169063054d50d4906064015b60206040518083038186803b15801561135b57600080fd5b505afa15801561136f573d6000803e3d6000fd5b505050506040513d601f19601f820116820180604052508101906113939190613ead565b93506114df565b600354604051630153543560e21b81526004810187905260248101839052604481018490526001600160a01b039091169063054d50d490606401611343565b6113e3818861408c565b6113ed838a61408c565b116113f95760006113fc565b60015b925061140b8888838587612706565b9450821561145257600354604051630153543560e21b81526004810187905260248101839052604481018490526001600160a01b039091169063054d50d490606401611343565b600354604051630153543560e21b81526004810187905260248101849052604481018390526001600160a01b039091169063054d50d49060640160206040518083038186803b1580156114a457600080fd5b505afa1580156114b8573d6000803e3d6000fd5b505050506040513d601f19601f820116820180604052508101906114dc9190613ead565b93505b5050955095509592505050565b6114f4611a94565b6115096001600160a01b0385163386856120fb565b6000611516858584612133565b905061152c6001600160a01b0385163383611a31565b604080518481526020810183905233916001600160a01b0387811692908916917f20ef8a4c975ec6c340089d8171a0f9c6a6324b11e3ecc4353155186f6c638c2891015b60405180910390a45061158260018055565b50505050565b611590611a94565b6115a56001600160a01b0385163330866120fb565b60006115b385858585611aee565b9050336001600160a01b0316836001600160a01b0316866001600160a01b03167fa71185a0ff368de4e9e445d8601c4fbd50d9b674e4e43f5f8feafb8d64a2e13e8785604051611570929190918252602082015260400190565b611615611a94565b61162a6001600160a01b0389163330896120fb565b61163f6001600160a01b0388163330886120fb565b60006116518989898989898989612b37565b604080516001600160a01b038881168252602082018b90529181018990526060810183905291925033918a8216918c16907f4ff29158e89c3af93365bf0fa1d14c5768109fb139f24b97c8a7d510b2d5e3f69060800160405180910390a4506116b960018055565b5050505050505050565b6116cb611a94565b600260009054906101000a90046001600160a01b03166001600160a01b031663d0e30db0346040518263ffffffff1660e01b81526004016000604051808303818588803b15801561171b57600080fd5b505af115801561172f573d6000803e3d6000fd5b5061174b935050506001600160a01b03881690503330886120fb565b60065460009061176a906001600160a01b031688348989898989612b37565b604080516001600160a01b038881168252346020830152918101899052606081018390529192503391908916906000907f4ff29158e89c3af93365bf0fa1d14c5768109fb139f24b97c8a7d510b2d5e3f69060800160405180910390a4506117d160018055565b505050505050565b6117e1611852565b6001600160a01b0381166118465760405162461bcd60e51b815260206004820152602660248201527f4f776e61626c653a206e6577206f776e657220697320746865207a65726f206160448201526564647265737360d01b6064820152608401610570565b61184f816126b6565b50565b6000546001600160a01b03163314610ebb5760405162461bcd60e51b815260206004820181905260248201527f4f776e61626c653a2063616c6c6572206973206e6f7420746865206f776e65726044820152606401610570565b6000806118ba60028661406c565b600354604051630153543560e21b81526004810183905260248101879052604481018690529192506000916001600160a01b039091169063054d50d49060640160206040518083038186803b15801561191257600080fd5b505afa158015611926573d6000803e3d6000fd5b505050506040513d601f19601f8201168201806040525081019061194a9190613ead565b6003549091506000906001600160a01b031663ad615dec8461196c818a614054565b611976868a6140ab565b6040516001600160e01b031960e086901b16815260048101939093526024830191909152604482015260640160206040518083038186803b1580156119ba57600080fd5b505afa1580156119ce573d6000803e3d6000fd5b505050506040513d601f19601f820116820180604052508101906119f29190613ead565b9050611a1c8183611a03868061408c565b611a0d919061408c565b611a17919061406c565b61350b565b611a2690886140ab565b979650505050505050565b6040516001600160a01b038316602482015260448101829052610ea490849063a9059cbb60e01b906064015b60408051601f198184030181529190526020810180516001600160e01b03166001600160e01b031990931692909217909152613689565b60026001541415611ae75760405162461bcd60e51b815260206004820152601f60248201527f5265656e7472616e637947756172643a207265656e7472616e742063616c6c006044820152606401610570565b6002600155565b60006103e8841015611b385760405162461bcd60e51b81526020600482015260136024820152725a61703a20416d6f756e7420746f6f206c6f7760681b6044820152606401610570565b6000836001600160a01b0316630dfe16816040518163ffffffff1660e01b815260040160206040518083038186803b158015611b7357600080fd5b505afa158015611b87573d6000803e3d6000fd5b505050506040513d601f19601f82011682018060405250810190611bab9190613ae6565b90506000846001600160a01b031663d21220a76040518163ffffffff1660e01b815260040160206040518083038186803b158015611be857600080fd5b505afa158015611bfc573d6000803e3d6000fd5b505050506040513d601f19601f82011682018060405250810190611c209190613ae6565b9050816001600160a01b0316876001600160a01b03161480611c535750806001600160a01b0316876001600160a01b0316145b611c935760405162461bcd60e51b81526020600482015260116024820152705a61703a2057726f6e6720746f6b656e7360781b6044820152606401610570565b6040805160028082526060820183526000926020830190803683370190505090508781600081518110611cd657634e487b7160e01b600052603260045260246000fd5b60200260200101906001600160a01b031690816001600160a01b0316815250506000806000886001600160a01b0316630902f1ac6040518163ffffffff1660e01b815260040160606040518083038186803b158015611d3457600080fd5b505afa158015611d48573d6000803e3d6000fd5b505050506040513d601f19601f82011682018060405250810190611d6c9190613e52565b506001600160701b031691506001600160701b031691506103e88210158015611d9757506103e88110155b611ddb5760405162461bcd60e51b81526020600482015260156024820152745a61703a20526573657276657320746f6f206c6f7760581b6044820152606401610570565b8a6001600160a01b0316866001600160a01b03161415611e6c57611e008a83836118ac565b92508484600181518110611e2457634e487b7160e01b600052603260045260246000fd5b6001600160a01b0390921660209283029190910190910152600454611e49848461406c565b1015611e675760405162461bcd60e51b815260040161057090613fad565b611ede565b611e778a82846118ac565b92508584600181518110611e9b57634e487b7160e01b600052603260045260246000fd5b6001600160a01b0390921660209283029190910190910152600454611ec0848361406c565b1015611ede5760405162461bcd60e51b815260040161057090613fad565b5050611ee98961375e565b6003546040516338ed173960e01b81526000916001600160a01b0316906338ed173990611f229085908b90889030904290600401613fe4565b600060405180830381600087803b158015611f3c57600080fd5b505af1158015611f50573d6000803e3d6000fd5b505050506040513d6000823e601f3d908101601f19168201604052611f789190810190613d76565b9050896001600160a01b0316856001600160a01b03161415611fa257611f9d8461375e565b611fab565b611fab8561375e565b60035483516001600160a01b039091169063e8e33700908590600090611fe157634e487b7160e01b600052603260045260246000fd5b60200260200101518560018151811061200a57634e487b7160e01b600052603260045260246000fd5b60200260200101518460008151811061203357634e487b7160e01b600052603260045260246000fd5b60200260200101518d61204691906140ab565b8560018151811061206757634e487b7160e01b600052603260045260246000fd5b602002602001015160018033426040518963ffffffff1660e01b8152600401612097989796959493929190613f31565b606060405180830381600087803b1580156120b157600080fd5b505af11580156120c5573d6000803e3d6000fd5b505050506040513d601f19601f820116820180604052508101906120e99190613ee8565b9750505050505050505b949350505050565b6040516001600160a01b03808516602483015283166044820152606481018290526115829085906323b872dd60e01b90608401611a5d565b600080846001600160a01b0316630dfe16816040518163ffffffff1660e01b815260040160206040518083038186803b15801561216f57600080fd5b505afa158015612183573d6000803e3d6000fd5b505050506040513d601f19601f820116820180604052508101906121a79190613ae6565b90506000856001600160a01b031663d21220a76040518163ffffffff1660e01b815260040160206040518083038186803b1580156121e457600080fd5b505afa1580156121f8573d6000803e3d6000fd5b505050506040513d601f19601f8201168201806040525081019061221c9190613ae6565b9050816001600160a01b0316856001600160a01b0316148061224f5750806001600160a01b0316856001600160a01b0316145b6122925760405162461bcd60e51b815260206004820152601460248201527305a61703a20546f6b656e206e6f7420696e204c560641b6044820152606401610570565b60405163226bf2d160e21b815230600482015260009081906001600160a01b038916906389afcb44906024016040805180830381600087803b1580156122d757600080fd5b505af11580156122eb573d6000803e3d6000fd5b505050506040513d601f19601f8201168201806040525081019061230f9190613ec5565b915091506103e88210156123715760405162461bcd60e51b8152602060048201526024808201527f50616e63616b65526f757465723a20494e53554646494349454e545f415f414d60448201526313d5539560e21b6064820152608401610570565b6103e88110156123cf5760405162461bcd60e51b8152602060048201526024808201527f50616e63616b65526f757465723a20494e53554646494349454e545f425f414d60448201526313d5539560e21b6064820152608401610570565b604080516002808252606082018352600092602083019080368337019050509050878160018151811061241257634e487b7160e01b600052603260045260246000fd5b6001600160a01b039283166020918202929092010152600090868116908a1614156124ef57848260008151811061245957634e487b7160e01b600052603260045260246000fd5b6001600160a01b0392831660209182029290920101526040516370a0823160e01b8152306004820152908616906370a082319060240160206040518083038186803b1580156124a757600080fd5b505afa1580156124bb573d6000803e3d6000fd5b505050506040513d601f19601f820116820180604052508101906124df9190613ead565b90506124ea8561375e565b6125a2565b858260008151811061251157634e487b7160e01b600052603260045260246000fd5b6001600160a01b0392831660209182029290920101526040516370a0823160e01b8152306004820152908716906370a082319060240160206040518083038186803b15801561255f57600080fd5b505afa158015612573573d6000803e3d6000fd5b505050506040513d601f19601f820116820180604052508101906125979190613ead565b90506125a28661375e565b6003546040516338ed173960e01b81526001600160a01b03909116906338ed1739906125da9084908c90879030904290600401613fe4565b600060405180830381600087803b1580156125f457600080fd5b505af1158015612608573d6000803e3d6000fd5b505050506040513d6000823e601f3d908101601f191682016040526126309190810190613d76565b506040516370a0823160e01b81523060048201526001600160a01b038a16906370a082319060240160206040518083038186803b15801561267057600080fd5b505afa158015612684573d6000803e3d6000fd5b505050506040513d601f19601f820116820180604052508101906126a89190613ead565b9a9950505050505050505050565b600080546001600160a01b038381166001600160a01b0319831681178455604051919092169283917f8be0079c531659141344cd1fd0a4f28419497f9722a3daafe3b4186f6b6457e09190a35050565b600080612713858761408c565b61271d858961408c565b1161272957600061272c565b60015b9050821515811515146127815760405162461bcd60e51b815260206004820152601a60248201527f5a61703a2057726f6e6720747261646520646972656374696f6e0000000000006044820152606401610570565b801561295c576000600285612796888a61408c565b6127a0919061406c565b6127aa908a6140ab565b6127b4919061406c565b600354604051630153543560e21b81526004810183905260248101899052604481018890529192506000916001600160a01b039091169063054d50d49060640160206040518083038186803b15801561280c57600080fd5b505afa158015612820573d6000803e3d6000fd5b505050506040513d601f19601f820116820180604052508101906128449190613ead565b6003549091506000906001600160a01b031663ad615dec84612866818c614054565b612870868c6140ab565b6040516001600160e01b031960e086901b16815260048101939093526024830191909152604482015260640160206040518083038186803b1580156128b457600080fd5b505afa1580156128c8573d6000803e3d6000fd5b505050506040513d601f19601f820116820180604052508101906128ec9190613ead565b905060026128fa83896140ab565b612904858b614054565b61290e908c61408c565b612918919061406c565b612922908c6140ab565b61292c919061406c565b925061293d8183611a03868061408c565b61294884600261408c565b61295291906140ab565b9450505050612b2d565b600060028661296b878b61408c565b612975919061406c565b61297f90896140ab565b612989919061406c565b600354604051630153543560e21b81526004810183905260248101889052604481018990529192506000916001600160a01b039091169063054d50d49060640160206040518083038186803b1580156129e157600080fd5b505afa1580156129f5573d6000803e3d6000fd5b505050506040513d601f19601f82011682018060405250810190612a199190613ead565b6003549091506000906001600160a01b031663ad615dec84612a3b818b614054565b612a45868d6140ab565b6040516001600160e01b031960e086901b16815260048101939093526024830191909152604482015260640160206040518083038186803b158015612a8957600080fd5b505afa158015612a9d573d6000803e3d6000fd5b505050506040513d601f19601f82011682018060405250810190612ac19190613ead565b90506002612acf838a6140ab565b612ad9858a614054565b612ae3908d61408c565b612aed919061406c565b612af7908b6140ab565b612b01919061406c565b9250612b128183611a03868061408c565b612b1d84600261408c565b612b2791906140ab565b94505050505b5095945050505050565b6000846001600160a01b0316630dfe16816040518163ffffffff1660e01b815260040160206040518083038186803b158015612b7257600080fd5b505afa158015612b86573d6000803e3d6000fd5b505050506040513d601f19601f82011682018060405250810190612baa9190613ae6565b6001600160a01b0316896001600160a01b03161480612c4a5750846001600160a01b031663d21220a76040518163ffffffff1660e01b815260040160206040518083038186803b158015612bfd57600080fd5b505afa158015612c11573d6000803e3d6000fd5b505050506040513d601f19601f82011682018060405250810190612c359190613ae6565b6001600160a01b0316896001600160a01b0316145b612c8a5760405162461bcd60e51b815260206004820152601160248201527005a61703a2057726f6e6720746f6b656e3607c1b6044820152606401610570565b846001600160a01b0316630dfe16816040518163ffffffff1660e01b815260040160206040518083038186803b158015612cc357600080fd5b505afa158015612cd7573d6000803e3d6000fd5b505050506040513d601f19601f82011682018060405250810190612cfb9190613ae6565b6001600160a01b0316886001600160a01b03161480612d9b5750846001600160a01b031663d21220a76040518163ffffffff1660e01b815260040160206040518083038186803b158015612d4e57600080fd5b505afa158015612d62573d6000803e3d6000fd5b505050506040513d601f19601f82011682018060405250810190612d869190613ae6565b6001600160a01b0316886001600160a01b0316145b612ddb5760405162461bcd60e51b81526020600482015260116024820152705a61703a2057726f6e6720746f6b656e3160781b6044820152606401610570565b876001600160a01b0316896001600160a01b03161415612e305760405162461bcd60e51b815260206004820152601060248201526f5a61703a2053616d6520746f6b656e7360801b6044820152606401610570565b6000806000876001600160a01b0316630902f1ac6040518163ffffffff1660e01b815260040160606040518083038186803b158015612e6e57600080fd5b505afa158015612e82573d6000803e3d6000fd5b505050506040513d601f19601f82011682018060405250810190612ea69190613e52565b506001600160701b031691506001600160701b031691506103e88210158015612ed157506103e88110155b612f155760405162461bcd60e51b81526020600482015260156024820152745a61703a20526573657276657320746f6f206c6f7760581b6044820152606401610570565b876001600160a01b0316630dfe16816040518163ffffffff1660e01b815260040160206040518083038186803b158015612f4e57600080fd5b505afa158015612f62573d6000803e3d6000fd5b505050506040513d601f19601f82011682018060405250810190612f869190613ae6565b6001600160a01b03168c6001600160a01b03161415612fdf57612fac8a8a848489612706565b600454909350612fbc848461406c565b1015612fda5760405162461bcd60e51b815260040161057090613fad565b61301a565b612fec8a8a838589612706565b600454909350612ffc848361406c565b101561301a5760405162461bcd60e51b815260040161057090613fad565b50508481111561306c5760405162461bcd60e51b815260206004820152601c60248201527f5a61703a20416d6f756e7420746f207377617020746f6f2068696768000000006044820152606401610570565b6040805160028082526060820183526000926020830190803683370190505090508315613125578a816000815181106130b557634e487b7160e01b600052603260045260246000fd5b60200260200101906001600160a01b031690816001600160a01b03168152505089816001815181106130f757634e487b7160e01b600052603260045260246000fd5b60200260200101906001600160a01b031690816001600160a01b0316815250506131208b61375e565b6131b2565b898160008151811061314757634e487b7160e01b600052603260045260246000fd5b60200260200101906001600160a01b031690816001600160a01b0316815250508a8160018151811061318957634e487b7160e01b600052603260045260246000fd5b60200260200101906001600160a01b031690816001600160a01b0316815250506131b28a61375e565b6003546040516338ed173960e01b81526000916001600160a01b0316906338ed1739906131eb9086908a90879030904290600401613fe4565b600060405180830381600087803b15801561320557600080fd5b505af1158015613219573d6000803e3d6000fd5b505050506040513d6000823e601f3d908101601f191682016040526132419190810190613d76565b905084156133a5576132528b61375e565b60035482516001600160a01b039091169063e8e3370090849060009061328857634e487b7160e01b600052603260045260246000fd5b6020026020010151846001815181106132b157634e487b7160e01b600052603260045260246000fd5b6020026020010151846000815181106132da57634e487b7160e01b600052603260045260246000fd5b60200260200101518e6132ed91906140ab565b8560018151811061330e57634e487b7160e01b600052603260045260246000fd5b60200260200101518e6133219190614054565b60018033426040518963ffffffff1660e01b8152600401613349989796959493929190613f31565b606060405180830381600087803b15801561336357600080fd5b505af1158015613377573d6000803e3d6000fd5b505050506040513d601f19601f8201168201806040525081019061339b9190613ee8565b95506134fc915050565b6133ae8c61375e565b60035482516001600160a01b039091169063e8e337009084906000906133e457634e487b7160e01b600052603260045260246000fd5b60200260200101518460018151811061340d57634e487b7160e01b600052603260045260246000fd5b60200260200101518460008151811061343657634e487b7160e01b600052603260045260246000fd5b60200260200101518d61344991906140ab565b8560018151811061346a57634e487b7160e01b600052603260045260246000fd5b60200260200101518f61347d9190614054565b60018033426040518963ffffffff1660e01b81526004016134a5989796959493929190613f31565b606060405180830381600087803b1580156134bf57600080fd5b505af11580156134d3573d6000803e3d6000fd5b505050506040513d601f19601f820116820180604052508101906134f79190613ee8565b955050505b50505098975050505050505050565b60008161351a57506000919050565b816001600160801b82106135335760809190911c9060401b5b68010000000000000000821061354e5760409190911c9060201b5b64010000000082106135655760209190911c9060101b5b62010000821061357a5760109190911c9060081b5b610100821061358e5760089190911c9060041b5b601082106135a15760049190911c9060021b5b600882106135ad5760011b5b60016135b9828661406c565b6135c39083614054565b901c905060016135d3828661406c565b6135dd9083614054565b901c905060016135ed828661406c565b6135f79083614054565b901c90506001613607828661406c565b6136119083614054565b901c90506001613621828661406c565b61362b9083614054565b901c9050600161363b828661406c565b6136459083614054565b901c90506001613655828661406c565b61365f9083614054565b901c9050600061366f828661406c565b905080821061367e5780613680565b815b95945050505050565b60006136de826040518060400160405280602081526020017f5361666545524332303a206c6f772d6c6576656c2063616c6c206661696c6564815250856001600160a01b031661380e9092919063ffffffff16565b90508051600014806136ff5750808060200190518101906136ff9190613e36565b610ea45760405162461bcd60e51b815260206004820152602a60248201527f5361666545524332303a204552433230206f7065726174696f6e20646964206e6044820152691bdd081cdd58d8d9595960b21b6064820152608401610570565b600554604051636eb1769f60e11b81523060048201526001600160a01b03918216602482015269d3c21bcecceda10000009183169063dd62ed3e9060440160206040518083038186803b1580156137b457600080fd5b505afa1580156137c8573d6000803e3d6000fd5b505050506040513d601f19601f820116820180604052508101906137ec9190613ead565b101561184f5760055461184f906001600160a01b03838116911660001961381d565b60606120f38484600085613941565b8015806138a65750604051636eb1769f60e11b81523060048201526001600160a01b03838116602483015284169063dd62ed3e9060440160206040518083038186803b15801561386c57600080fd5b505afa158015613880573d6000803e3d6000fd5b505050506040513d601f19601f820116820180604052508101906138a49190613ead565b155b6139115760405162461bcd60e51b815260206004820152603660248201527f5361666545524332303a20617070726f76652066726f6d206e6f6e2d7a65726f60448201527520746f206e6f6e2d7a65726f20616c6c6f77616e636560501b6064820152608401610570565b6040516001600160a01b038316602482015260448101829052610ea490849063095ea7b360e01b90606401611a5d565b6060824710156139a25760405162461bcd60e51b815260206004820152602660248201527f416464726573733a20696e73756666696369656e742062616c616e636520666f6044820152651c8818d85b1b60d21b6064820152608401610570565b600080866001600160a01b031685876040516139be9190613f15565b60006040518083038185875af1925050503d80600081146139fb576040519150601f19603f3d011682016040523d82523d6000602084013e613a00565b606091505b5091509150611a268783838760608315613a78578251613a71576001600160a01b0385163b613a715760405162461bcd60e51b815260206004820152601d60248201527f416464726573733a2063616c6c20746f206e6f6e2d636f6e74726163740000006044820152606401610570565b50816120f3565b6120f38383815115613a8d5781518083602001fd5b8060405162461bcd60e51b81526004016105709190613f7a565b80516001600160701b0381168114613abe57600080fd5b919050565b600060208284031215613ad4578081fd5b8135613adf8161411a565b9392505050565b600060208284031215613af7578081fd5b8151613adf8161411a565b60008060008060808587031215613b17578283fd5b8435613b228161411a565b93506020850135613b328161411a565b93969395505050506040820135916060013590565b600080600080600060a08688031215613b5e578081fd5b8535613b698161411a565b94506020860135613b798161411a565b935060408601359250606086013591506080860135613b978161411a565b809150509295509295909350565b600080600080600080600080610100898b031215613bc1578283fd5b8835613bcc8161411a565b97506020890135613bdc8161411a565b965060408901359550606089013594506080890135613bfa8161411a565b935060a0890135925060c0890135915060e0890135613c188161412f565b809150509295985092959890939650565b60008060408385031215613c3b578182fd5b8235613c468161411a565b946020939093013593505050565b600080600060608486031215613c68578283fd5b8335613c738161411a565b9250602084013591506040840135613c8a8161411a565b809150509250925092565b60008060008060808587031215613caa578384fd5b8435613cb58161411a565b9350602085013592506040850135613ccc8161411a565b9396929550929360600135925050565b60008060008060008060c08789031215613cf4578182fd5b8635613cff8161411a565b9550602087013594506040870135613d168161411a565b9350606087013592506080870135915060a0870135613d348161412f565b809150509295509295509295565b600080600060608486031215613d56578081fd5b8335613d618161411a565b95602085013595506040909401359392505050565b60006020808385031215613d88578182fd5b825167ffffffffffffffff80821115613d9f578384fd5b818501915085601f830112613db2578384fd5b815181811115613dc457613dc4614104565b8060051b604051601f19603f83011681018181108582111715613de957613de9614104565b604052828152858101935084860182860187018a1015613e07578788fd5b8795505b83861015613e29578051855260019590950194938601938601613e0b565b5098975050505050505050565b600060208284031215613e47578081fd5b8151613adf8161412f565b600080600060608486031215613e66578081fd5b613e6f84613aa7565b9250613e7d60208501613aa7565b9150604084015163ffffffff81168114613c8a578182fd5b600060208284031215613ea6578081fd5b5035919050565b600060208284031215613ebe578081fd5b5051919050565b60008060408385031215613ed7578182fd5b505080516020909101519092909150565b600080600060608486031215613efc578081fd5b8351925060208401519150604084015190509250925092565b60008251613f278184602087016140c2565b9190910192915050565b6001600160a01b039889168152968816602088015260408701959095526060860193909352608085019190915260a084015290921660c082015260e08101919091526101000190565b6020815260008251806020840152613f998160408501602087016140c2565b601f01601f19169190910160400192915050565b6020808252601f908201527f5a61703a205175616e7469747920686967686572207468616e206c696d697400604082015260600190565b600060a082018783526020878185015260a0604085015281875180845260c0860191508289019350845b818110156140335784516001600160a01b03168352938301939183019160010161400e565b50506001600160a01b03969096166060850152505050608001529392505050565b60008219821115614067576140676140ee565b500190565b60008261408757634e487b7160e01b81526012600452602481fd5b500490565b60008160001904831182151516156140a6576140a66140ee565b500290565b6000828210156140bd576140bd6140ee565b500390565b60005b838110156140dd5781810151838201526020016140c5565b838111156115825750506000910152565b634e487b7160e01b600052601160045260246000fd5b634e487b7160e01b600052604160045260246000fd5b6001600160a01b038116811461184f57600080fd5b801515811461184f57600080fdfea264697066735822122012e6e76c669cef36fd09d2e5a41f65a379002ab0393bfbd921b7131b20b2992e64736f6c63430008040033",
  "linkReferences": {},
  "deployedLinkReferences": {}
}