{
  "_format": "hh-sol-artifact-1",
  "contractName": "PiraFactory",
  "sourceName": "contracts/PiraFactory.sol",
  "abi": [
    {
      "inputs": [
        {
          "internalType": "address",
          "name": "_feeToSetter",
          "type": "address"
        }
      ],
      "payable": false,
      "stateMutability": "nonpayable",
      "type": "constructor"
    },
    {
      "anonymous": false,
      "inputs": [
        {
          "indexed": true,
          "internalType": "address",
          "name": "token0",
          "type": "address"
        },
        {
          "indexed": true,
          "internalType": "address",
          "name": "token1",
          "type": "address"
        },
        {
          "indexed": false,
          "internalType": "address",
          "name": "pair",
          "type": "address"
        },
        {
          "indexed": false,
          "internalType": "uint256",
          "name": "",
          "type": "uint256"
        }
      ],
      "name": "PairCreated",
      "type": "event"
    },
    {
      "constant": true,
      "inputs": [],
      "name": "INIT_CODE_PAIR_HASH",
      "outputs": [
        {
          "internalType": "bytes32",
          "name": "",
          "type": "bytes32"
        }
      ],
      "payable": false,
      "stateMutability": "view",
      "type": "function"
    },
    {
      "constant": true,
      "inputs": [
        {
          "internalType": "uint256",
          "name": "",
          "type": "uint256"
        }
      ],
      "name": "allPairs",
      "outputs": [
        {
          "internalType": "address",
          "name": "",
          "type": "address"
        }
      ],
      "payable": false,
      "stateMutability": "view",
      "type": "function"
    },
    {
      "constant": true,
      "inputs": [],
      "name": "allPairsLength",
      "outputs": [
        {
          "internalType": "uint256",
          "name": "",
          "type": "uint256"
        }
      ],
      "payable": false,
      "stateMutability": "view",
      "type": "function"
    },
    {
      "constant": false,
      "inputs": [
        {
          "internalType": "address",
          "name": "tokenA",
          "type": "address"
        },
        {
          "internalType": "address",
          "name": "tokenB",
          "type": "address"
        }
      ],
      "name": "createPair",
      "outputs": [
        {
          "internalType": "address",
          "name": "pair",
          "type": "address"
        }
      ],
      "payable": false,
      "stateMutability": "nonpayable",
      "type": "function"
    },
    {
      "constant": true,
      "inputs": [],
      "name": "feeTo",
      "outputs": [
        {
          "internalType": "address",
          "name": "",
          "type": "address"
        }
      ],
      "payable": false,
      "stateMutability": "view",
      "type": "function"
    },
    {
      "constant": true,
      "inputs": [],
      "name": "feeToSetter",
      "outputs": [
        {
          "internalType": "address",
          "name": "",
          "type": "address"
        }
      ],
      "payable": false,
      "stateMutability": "view",
      "type": "function"
    },
    {
      "constant": true,
      "inputs": [
        {
          "internalType": "address",
          "name": "",
          "type": "address"
        },
        {
          "internalType": "address",
          "name": "",
          "type": "address"
        }
      ],
      "name": "getPair",
      "outputs": [
        {
          "internalType": "address",
          "name": "",
          "type": "address"
        }
      ],
      "payable": false,
      "stateMutability": "view",
      "type": "function"
    },
    {
      "constant": false,
      "inputs": [
        {
          "internalType": "address",
          "name": "_feeTo",
          "type": "address"
        }
      ],
      "name": "setFeeTo",
      "outputs": [],
      "payable": false,
      "stateMutability": "nonpayable",
      "type": "function"
    },
    {
      "constant": false,
      "inputs": [
        {
          "internalType": "address",
          "name": "_feeToSetter",
          "type": "address"
        }
      ],
      "name": "setFeeToSetter",
      "outputs": [],
      "payable": false,
      "stateMutability": "nonpayable",
      "type": "function"
    }
  ],
  "bytecode": "0x608060405234801561001057600080fd5b506040516135c23803806135c28339818101604052602081101561003357600080fd5b5051600180546001600160a01b0319166001600160a01b0390921691909117905561355f806100636000396000f3fe608060405234801561001057600080fd5b50600436106100a35760003560e01c80635855a25a11610076578063c9c653961161005b578063c9c6539614610155578063e6a4390514610190578063f46901ed146101cb576100a3565b80635855a25a14610118578063a2e74af614610120576100a3565b8063017e7e58146100a8578063094b7415146100d95780631e3dd18b146100e1578063574f2ba3146100fe575b600080fd5b6100b06101fe565b6040805173ffffffffffffffffffffffffffffffffffffffff9092168252519081900360200190f35b6100b061021a565b6100b0600480360360208110156100f757600080fd5b5035610236565b61010661026a565b60408051918252519081900360200190f35b610106610270565b6101536004803603602081101561013657600080fd5b503573ffffffffffffffffffffffffffffffffffffffff16610321565b005b6100b06004803603604081101561016b57600080fd5b5073ffffffffffffffffffffffffffffffffffffffff813581169160200135166103ee565b6100b0600480360360408110156101a657600080fd5b5073ffffffffffffffffffffffffffffffffffffffff81358116916020013516610841565b610153600480360360208110156101e157600080fd5b503573ffffffffffffffffffffffffffffffffffffffff16610874565b60005473ffffffffffffffffffffffffffffffffffffffff1681565b60015473ffffffffffffffffffffffffffffffffffffffff1681565b6003818154811061024357fe5b60009182526020909120015473ffffffffffffffffffffffffffffffffffffffff16905081565b60035490565b60405161027f60208201610941565b6020820181038252601f19601f820116604052506040516020018082805190602001908083835b602083106102e357805182527fffffffffffffffffffffffffffffffffffffffffffffffffffffffffffffffe090920191602091820191016102a6565b6001836020036101000a0380198251168184511680821785525050505050509050019150506040516020818303038152906040528051906020012081565b60015473ffffffffffffffffffffffffffffffffffffffff1633146103a757604080517f08c379a000000000000000000000000000000000000000000000000000000000815260206004820152600f60248201527f506972613a20464f5242494444454e0000000000000000000000000000000000604482015290519081900360640190fd5b600180547fffffffffffffffffffffffff00000000000000000000000000000000000000001673ffffffffffffffffffffffffffffffffffffffff92909216919091179055565b60008173ffffffffffffffffffffffffffffffffffffffff168373ffffffffffffffffffffffffffffffffffffffff16141561048b57604080517f08c379a000000000000000000000000000000000000000000000000000000000815260206004820152601960248201527f506972613a204944454e544943414c5f41444452455353455300000000000000604482015290519081900360640190fd5b6000808373ffffffffffffffffffffffffffffffffffffffff168573ffffffffffffffffffffffffffffffffffffffff16106104c85783856104cb565b84845b909250905073ffffffffffffffffffffffffffffffffffffffff821661055257604080517f08c379a000000000000000000000000000000000000000000000000000000000815260206004820152601260248201527f506972613a205a45524f5f414444524553530000000000000000000000000000604482015290519081900360640190fd5b73ffffffffffffffffffffffffffffffffffffffff8281166000908152600260209081526040808320858516845290915290205416156105f357604080517f08c379a000000000000000000000000000000000000000000000000000000000815260206004820152601160248201527f506972613a20504149525f455849535453000000000000000000000000000000604482015290519081900360640190fd5b60606040518060200161060590610941565b6020820181038252601f19601f82011660405250905060008383604051602001808373ffffffffffffffffffffffffffffffffffffffff1673ffffffffffffffffffffffffffffffffffffffff1660601b81526014018273ffffffffffffffffffffffffffffffffffffffff1673ffffffffffffffffffffffffffffffffffffffff1660601b815260140192505050604051602081830303815290604052805190602001209050808251602084016000f5604080517f485cc95500000000000000000000000000000000000000000000000000000000815273ffffffffffffffffffffffffffffffffffffffff8781166004830152868116602483015291519297509087169163485cc9559160448082019260009290919082900301818387803b15801561073257600080fd5b505af1158015610746573d6000803e3d6000fd5b5050505073ffffffffffffffffffffffffffffffffffffffff84811660008181526002602081815260408084208987168086529083528185208054978d167fffffffffffffffffffffffff000000000000000000000000000000000000000098891681179091559383528185208686528352818520805488168517905560038054600181018255958190527fc2575a0e9e593c00f959f8c92f12db2869c3395a3b0502d05e2516446f71f85b90950180549097168417909655925483519283529082015281517f0d3648bd0f6ba80134a33ba9275ac585d9d315f0ad8355cddefde31afa28d0e9929181900390910190a35050505092915050565b600260209081526000928352604080842090915290825290205473ffffffffffffffffffffffffffffffffffffffff1681565b60015473ffffffffffffffffffffffffffffffffffffffff1633146108fa57604080517f08c379a000000000000000000000000000000000000000000000000000000000815260206004820152600f60248201527f506972613a20464f5242494444454e0000000000000000000000000000000000604482015290519081900360640190fd5b600080547fffffffffffffffffffffffff00000000000000000000000000000000000000001673ffffffffffffffffffffffffffffffffffffffff92909216919091179055565b612bdc8061094f8339019056fe60806040526001600c5534801561001557600080fd5b506040514690806052612b8a8239604080519182900360520182208282018252600883526750697261204c507360c01b6020938401528151808301835260018152603160f81b908401528151808401919091527fcbb0fb55b5727b7fe993cb564a340a0501967f35b69217d85cdd0a887d37bd9e818301527fc89efdaa54c0f20c7adf612882df0950f5a951637e0307cdcb4c672f298b8bc6606082015260808101949094523060a0808601919091528151808603909101815260c09094019052825192019190912060035550600580546001600160a01b03191633179055612a87806101036000396000f3fe608060405234801561001057600080fd5b50600436106101b95760003560e01c80636a627842116100f9578063ba9a7a5611610097578063d21220a711610071578063d21220a7146105d2578063d505accf146105da578063dd62ed3e14610638578063fff6cae914610673576101b9565b8063ba9a7a561461058f578063bc25cf7714610597578063c45a0155146105ca576101b9565b80637ecebe00116100d35780637ecebe00146104d757806389afcb441461050a57806395d89b4114610259578063a9059cbb14610556576101b9565b80636a6278421461046957806370a082311461049c5780637464fc3d146104cf576101b9565b806323b872dd116101665780633644e515116101405780633644e51514610416578063485cc9551461041e5780635909c0d5146104595780635a3d549314610461576101b9565b806323b872dd146103ad57806330adf81f146103f0578063313ce567146103f8576101b9565b8063095ea7b311610197578063095ea7b3146103155780630dfe16811461036257806318160ddd14610393576101b9565b8063022c0d9f146101be57806306fdde03146102595780630902f1ac146102d6575b600080fd5b610257600480360360808110156101d457600080fd5b81359160208101359173ffffffffffffffffffffffffffffffffffffffff604083013516919081019060808101606082013564010000000081111561021857600080fd5b82018360208201111561022a57600080fd5b8035906020019184600183028401116401000000008311171561024c57600080fd5b50909250905061067b565b005b610261610d92565b6040805160208082528351818301528351919283929083019185019080838360005b8381101561029b578181015183820152602001610283565b50505050905090810190601f1680156102c85780820380516001836020036101000a031916815260200191505b509250505060405180910390f35b6102de610dcb565b604080516dffffffffffffffffffffffffffff948516815292909316602083015263ffffffff168183015290519081900360600190f35b61034e6004803603604081101561032b57600080fd5b5073ffffffffffffffffffffffffffffffffffffffff8135169060200135610e20565b604080519115158252519081900360200190f35b61036a610e37565b6040805173ffffffffffffffffffffffffffffffffffffffff9092168252519081900360200190f35b61039b610e53565b60408051918252519081900360200190f35b61034e600480360360608110156103c357600080fd5b5073ffffffffffffffffffffffffffffffffffffffff813581169160208101359091169060400135610e59565b61039b610f38565b610400610f5c565b6040805160ff9092168252519081900360200190f35b61039b610f61565b6102576004803603604081101561043457600080fd5b5073ffffffffffffffffffffffffffffffffffffffff81358116916020013516610f67565b61039b611040565b61039b611046565b61039b6004803603602081101561047f57600080fd5b503573ffffffffffffffffffffffffffffffffffffffff1661104c565b61039b600480360360208110156104b257600080fd5b503573ffffffffffffffffffffffffffffffffffffffff166113b5565b61039b6113c7565b61039b600480360360208110156104ed57600080fd5b503573ffffffffffffffffffffffffffffffffffffffff166113cd565b61053d6004803603602081101561052057600080fd5b503573ffffffffffffffffffffffffffffffffffffffff166113df565b6040805192835260208301919091528051918290030190f35b61034e6004803603604081101561056c57600080fd5b5073ffffffffffffffffffffffffffffffffffffffff8135169060200135611935565b61039b611942565b610257600480360360208110156105ad57600080fd5b503573ffffffffffffffffffffffffffffffffffffffff16611948565b61036a611b3e565b61036a611b5a565b610257600480360360e08110156105f057600080fd5b5073ffffffffffffffffffffffffffffffffffffffff813581169160208101359091169060408101359060608101359060ff6080820135169060a08101359060c00135611b76565b61039b6004803603604081101561064e57600080fd5b5073ffffffffffffffffffffffffffffffffffffffff81358116916020013516611e42565b610257611e5f565b600c546001146106ec57604080517f08c379a000000000000000000000000000000000000000000000000000000000815260206004820152600c60248201527f506972613a204c4f434b45440000000000000000000000000000000000000000604482015290519081900360640190fd5b6000600c55841515806106ff5750600084115b61076a57604080517f08c379a000000000000000000000000000000000000000000000000000000000815260206004820181905260248201527f506972613a20494e53554646494349454e545f4f55545055545f414d4f554e54604482015290519081900360640190fd5b600080610775610dcb565b5091509150816dffffffffffffffffffffffffffff16871080156107a85750806dffffffffffffffffffffffffffff1686105b61081357604080517f08c379a000000000000000000000000000000000000000000000000000000000815260206004820152601c60248201527f506972613a20494e53554646494349454e545f4c495155494449545900000000604482015290519081900360640190fd5b600654600754600091829173ffffffffffffffffffffffffffffffffffffffff91821691908116908916821480159061087857508073ffffffffffffffffffffffffffffffffffffffff168973ffffffffffffffffffffffffffffffffffffffff1614155b6108e357604080517f08c379a000000000000000000000000000000000000000000000000000000000815260206004820152601060248201527f506972613a20494e56414c49445f544f00000000000000000000000000000000604482015290519081900360640190fd5b8a156108f4576108f4828a8d612045565b891561090557610905818a8c612045565b86156109e7578873ffffffffffffffffffffffffffffffffffffffff16632223d315338d8d8c8c6040518663ffffffff1660e01b8152600401808673ffffffffffffffffffffffffffffffffffffffff1673ffffffffffffffffffffffffffffffffffffffff168152602001858152602001848152602001806020018281038252848482818152602001925080828437600081840152601f19601f8201169050808301925050509650505050505050600060405180830381600087803b1580156109ce57600080fd5b505af11580156109e2573d6000803e3d6000fd5b505050505b604080517f70a08231000000000000000000000000000000000000000000000000000000008152306004820152905173ffffffffffffffffffffffffffffffffffffffff8416916370a08231916024808301926020929190829003018186803b158015610a5357600080fd5b505afa158015610a67573d6000803e3d6000fd5b505050506040513d6020811015610a7d57600080fd5b5051604080517f70a08231000000000000000000000000000000000000000000000000000000008152306004820152905191955073ffffffffffffffffffffffffffffffffffffffff8316916370a0823191602480820192602092909190829003018186803b158015610aef57600080fd5b505afa158015610b03573d6000803e3d6000fd5b505050506040513d6020811015610b1957600080fd5b5051925060009150506dffffffffffffffffffffffffffff85168a90038311610b43576000610b59565b89856dffffffffffffffffffffffffffff160383035b9050600089856dffffffffffffffffffffffffffff16038311610b7d576000610b93565b89856dffffffffffffffffffffffffffff160383035b90506000821180610ba45750600081115b610c0f57604080517f08c379a000000000000000000000000000000000000000000000000000000000815260206004820152601f60248201527f506972613a20494e53554646494349454e545f494e5055545f414d4f554e5400604482015290519081900360640190fd5b6000610c43610c2584601963ffffffff61225216565b610c378761271063ffffffff61225216565b9063ffffffff6122d816565b90506000610c5b610c2584601963ffffffff61225216565b9050610c946305f5e100610c886dffffffffffffffffffffffffffff8b8116908b1663ffffffff61225216565b9063ffffffff61225216565b610ca4838363ffffffff61225216565b1015610d1157604080517f08c379a000000000000000000000000000000000000000000000000000000000815260206004820152600760248201527f506972613a204b00000000000000000000000000000000000000000000000000604482015290519081900360640190fd5b5050610d1f8484888861234a565b60408051838152602081018390528082018d9052606081018c9052905173ffffffffffffffffffffffffffffffffffffffff8b169133917fd78ad95fa46c994b6551d0da85fc275fe613ce37657fb8d5e3d130840159d8229181900360800190a350506001600c55505050505050505050565b6040518060400160405280600881526020017f50697261204c507300000000000000000000000000000000000000000000000081525081565b6008546dffffffffffffffffffffffffffff808216926e0100000000000000000000000000008304909116917c0100000000000000000000000000000000000000000000000000000000900463ffffffff1690565b6000610e2d338484612606565b5060015b92915050565b60065473ffffffffffffffffffffffffffffffffffffffff1681565b60005481565b73ffffffffffffffffffffffffffffffffffffffff831660009081526002602090815260408083203384529091528120547fffffffffffffffffffffffffffffffffffffffffffffffffffffffffffffffff14610f235773ffffffffffffffffffffffffffffffffffffffff84166000908152600260209081526040808320338452909152902054610ef1908363ffffffff6122d816565b73ffffffffffffffffffffffffffffffffffffffff851660009081526002602090815260408083203384529091529020555b610f2e848484612675565b5060019392505050565b7f6e71edae12b1b97f4d1f60370fef10105fa2faae0126114a169c64845d6126c981565b601281565b60035481565b60055473ffffffffffffffffffffffffffffffffffffffff163314610fed57604080517f08c379a000000000000000000000000000000000000000000000000000000000815260206004820152600f60248201527f506972613a20464f5242494444454e0000000000000000000000000000000000604482015290519081900360640190fd5b6006805473ffffffffffffffffffffffffffffffffffffffff9384167fffffffffffffffffffffffff00000000000000000000000000000000000000009182161790915560078054929093169116179055565b60095481565b600a5481565b6000600c546001146110bf57604080517f08c379a000000000000000000000000000000000000000000000000000000000815260206004820152600c60248201527f506972613a204c4f434b45440000000000000000000000000000000000000000604482015290519081900360640190fd5b6000600c819055806110cf610dcb565b50600654604080517f70a08231000000000000000000000000000000000000000000000000000000008152306004820152905193955091935060009273ffffffffffffffffffffffffffffffffffffffff909116916370a08231916024808301926020929190829003018186803b15801561114957600080fd5b505afa15801561115d573d6000803e3d6000fd5b505050506040513d602081101561117357600080fd5b5051600754604080517f70a08231000000000000000000000000000000000000000000000000000000008152306004820152905192935060009273ffffffffffffffffffffffffffffffffffffffff909216916370a0823191602480820192602092909190829003018186803b1580156111ec57600080fd5b505afa158015611200573d6000803e3d6000fd5b505050506040513d602081101561121657600080fd5b50519050600061123c836dffffffffffffffffffffffffffff871663ffffffff6122d816565b90506000611260836dffffffffffffffffffffffffffff871663ffffffff6122d816565b6000549091508061129d576112896103e8610c37611284868663ffffffff61225216565b612756565b975061129860006103e86127a8565b6112fa565b6112f76dffffffffffffffffffffffffffff88166112c1858463ffffffff61225216565b816112c857fe5b046dffffffffffffffffffffffffffff88166112ea858563ffffffff61225216565b816112f157fe5b04612858565b97505b60008811611353576040517f08c379a0000000000000000000000000000000000000000000000000000000008152600401808060200182810382526023815260200180612a306023913960400191505060405180910390fd5b61135d89896127a8565b6113698585898961234a565b6040805184815260208101849052815133927f4c209b5fc8ad50758f13e2e1088ba56a560dff690a1c6fef26394f4c03821c4f928290030190a250506001600c55509395945050505050565b60016020526000908152604090205481565b600b5481565b60046020526000908152604090205481565b600080600c5460011461145357604080517f08c379a000000000000000000000000000000000000000000000000000000000815260206004820152600c60248201527f506972613a204c4f434b45440000000000000000000000000000000000000000604482015290519081900360640190fd5b6000600c81905580611463610dcb565b50600654600754604080517f70a08231000000000000000000000000000000000000000000000000000000008152306004820152905194965092945073ffffffffffffffffffffffffffffffffffffffff9182169391169160009184916370a08231916024808301926020929190829003018186803b1580156114e557600080fd5b505afa1580156114f9573d6000803e3d6000fd5b505050506040513d602081101561150f57600080fd5b5051604080517f70a08231000000000000000000000000000000000000000000000000000000008152306004820152905191925060009173ffffffffffffffffffffffffffffffffffffffff8516916370a08231916024808301926020929190829003018186803b15801561158357600080fd5b505afa158015611597573d6000803e3d6000fd5b505050506040513d60208110156115ad57600080fd5b505130600090815260016020526040812054905491925090806115d6838663ffffffff61225216565b816115dd57fe5b049950806115f1838563ffffffff61225216565b816115f857fe5b04985060008a11801561160b5750600089115b611660576040517f08c379a0000000000000000000000000000000000000000000000000000000008152600401808060200182810382526023815260200180612a0d6023913960400191505060405180910390fd5b61166a3083612870565b600554604080517f017e7e58000000000000000000000000000000000000000000000000000000008152905160009273ffffffffffffffffffffffffffffffffffffffff169163017e7e58916004808301926020929190829003018186803b1580156116d557600080fd5b505afa1580156116e9573d6000803e3d6000fd5b505050506040513d60208110156116ff57600080fd5b5051905073ffffffffffffffffffffffffffffffffffffffff8116158015906117595760c8808d04908c04811561174057818e039d506117408a8584612045565b801561175657808d039c50611756898583612045565b50505b611764888e8e612045565b61176f878e8d612045565b604080517f70a08231000000000000000000000000000000000000000000000000000000008152306004820152905173ffffffffffffffffffffffffffffffffffffffff8a16916370a08231916024808301926020929190829003018186803b1580156117db57600080fd5b505afa1580156117ef573d6000803e3d6000fd5b505050506040513d602081101561180557600080fd5b5051604080517f70a08231000000000000000000000000000000000000000000000000000000008152306004820152905191975073ffffffffffffffffffffffffffffffffffffffff8916916370a0823191602480820192602092909190829003018186803b15801561187757600080fd5b505afa15801561188b573d6000803e3d6000fd5b505050506040513d60208110156118a157600080fd5b505194506118b186868c8c61234a565b8c73ffffffffffffffffffffffffffffffffffffffff163373ffffffffffffffffffffffffffffffffffffffff167fdccd412f0b1252819cb1fd330b93224ca42612892bb3f4f789976e6d819364968e8e604051808381526020018281526020019250505060405180910390a3505050505050505050506001600c81905550915091565b6000610e2d338484612675565b6103e881565b600c546001146119b957604080517f08c379a000000000000000000000000000000000000000000000000000000000815260206004820152600c60248201527f506972613a204c4f434b45440000000000000000000000000000000000000000604482015290519081900360640190fd5b6000600c55600654600754600854604080517f70a08231000000000000000000000000000000000000000000000000000000008152306004820152905173ffffffffffffffffffffffffffffffffffffffff9485169490931692611a959285928792611a90926dffffffffffffffffffffffffffff169185916370a0823191602480820192602092909190829003018186803b158015611a5857600080fd5b505afa158015611a6c573d6000803e3d6000fd5b505050506040513d6020811015611a8257600080fd5b50519063ffffffff6122d816565b612045565b600854604080517f70a082310000000000000000000000000000000000000000000000000000000081523060048201529051611b349284928792611a90926e01000000000000000000000000000090046dffffffffffffffffffffffffffff169173ffffffffffffffffffffffffffffffffffffffff8616916370a0823191602480820192602092909190829003018186803b158015611a5857600080fd5b50506001600c5550565b60055473ffffffffffffffffffffffffffffffffffffffff1681565b60075473ffffffffffffffffffffffffffffffffffffffff1681565b42841015611be557604080517f08c379a000000000000000000000000000000000000000000000000000000000815260206004820152600d60248201527f506972613a204558504952454400000000000000000000000000000000000000604482015290519081900360640190fd5b60035473ffffffffffffffffffffffffffffffffffffffff80891660008181526004602090815260408083208054600180820190925582517f6e71edae12b1b97f4d1f60370fef10105fa2faae0126114a169c64845d6126c98186015280840196909652958d166060860152608085018c905260a085019590955260c08085018b90528151808603909101815260e0850182528051908301207f19010000000000000000000000000000000000000000000000000000000000006101008601526101028501969096526101228085019690965280518085039096018652610142840180825286519683019690962095839052610162840180825286905260ff89166101828501526101a284018890526101c28401879052519193926101e2808201937fffffffffffffffffffffffffffffffffffffffffffffffffffffffffffffffe081019281900390910190855afa158015611d46573d6000803e3d6000fd5b50506040517fffffffffffffffffffffffffffffffffffffffffffffffffffffffffffffffe0015191505073ffffffffffffffffffffffffffffffffffffffff811615801590611dc157508873ffffffffffffffffffffffffffffffffffffffff168173ffffffffffffffffffffffffffffffffffffffff16145b611e2c57604080517f08c379a000000000000000000000000000000000000000000000000000000000815260206004820152601760248201527f506972613a20494e56414c49445f5349474e4154555245000000000000000000604482015290519081900360640190fd5b611e37898989612606565b505050505050505050565b600260209081526000928352604080842090915290825290205481565b600c54600114611ed057604080517f08c379a000000000000000000000000000000000000000000000000000000000815260206004820152600c60248201527f506972613a204c4f434b45440000000000000000000000000000000000000000604482015290519081900360640190fd5b6000600c55600654604080517f70a08231000000000000000000000000000000000000000000000000000000008152306004820152905161203e9273ffffffffffffffffffffffffffffffffffffffff16916370a08231916024808301926020929190829003018186803b158015611f4757600080fd5b505afa158015611f5b573d6000803e3d6000fd5b505050506040513d6020811015611f7157600080fd5b5051600754604080517f70a08231000000000000000000000000000000000000000000000000000000008152306004820152905173ffffffffffffffffffffffffffffffffffffffff909216916370a0823191602480820192602092909190829003018186803b158015611fe457600080fd5b505afa158015611ff8573d6000803e3d6000fd5b505050506040513d602081101561200e57600080fd5b50516008546dffffffffffffffffffffffffffff808216916e01000000000000000000000000000090041661234a565b6001600c55565b604080518082018252601981527f7472616e7366657228616464726573732c75696e743235362900000000000000602091820152815173ffffffffffffffffffffffffffffffffffffffff85811660248301526044808301869052845180840390910181526064909201845291810180517bffffffffffffffffffffffffffffffffffffffffffffffffffffffff167fa9059cbb000000000000000000000000000000000000000000000000000000001781529251815160009460609489169392918291908083835b6020831061214b57805182527fffffffffffffffffffffffffffffffffffffffffffffffffffffffffffffffe0909201916020918201910161210e565b6001836020036101000a0380198251168184511680821785525050505050509050019150506000604051808303816000865af19150503d80600081146121ad576040519150601f19603f3d011682016040523d82523d6000602084013e6121b2565b606091505b50915091508180156121e05750805115806121e057508080602001905160208110156121dd57600080fd5b50515b61224b57604080517f08c379a000000000000000000000000000000000000000000000000000000000815260206004820152601560248201527f506972613a205452414e534645525f4641494c45440000000000000000000000604482015290519081900360640190fd5b5050505050565b600081158061226d5750508082028282828161226a57fe5b04145b610e3157604080517f08c379a000000000000000000000000000000000000000000000000000000000815260206004820152601460248201527f64732d6d6174682d6d756c2d6f766572666c6f77000000000000000000000000604482015290519081900360640190fd5b80820382811115610e3157604080517f08c379a000000000000000000000000000000000000000000000000000000000815260206004820152601560248201527f64732d6d6174682d7375622d756e646572666c6f770000000000000000000000604482015290519081900360640190fd5b6dffffffffffffffffffffffffffff841180159061237657506dffffffffffffffffffffffffffff8311155b6123e157604080517f08c379a000000000000000000000000000000000000000000000000000000000815260206004820152600e60248201527f506972613a204f564552464c4f57000000000000000000000000000000000000604482015290519081900360640190fd5b60085463ffffffff428116917c01000000000000000000000000000000000000000000000000000000009004811682039081161580159061243157506dffffffffffffffffffffffffffff841615155b801561244c57506dffffffffffffffffffffffffffff831615155b156124fc578063ffffffff1661248f8561246586612935565b7bffffffffffffffffffffffffffffffffffffffffffffffffffffffff169063ffffffff61295916565b600980547bffffffffffffffffffffffffffffffffffffffffffffffffffffffff929092169290920201905563ffffffff81166124cf8461246587612935565b600a80547bffffffffffffffffffffffffffffffffffffffffffffffffffffffff92909216929092020190555b600880547fffffffffffffffffffffffffffffffffffff0000000000000000000000000000166dffffffffffffffffffffffffffff888116919091177fffffffff0000000000000000000000000000ffffffffffffffffffffffffffff166e0100000000000000000000000000008883168102919091177bffffffffffffffffffffffffffffffffffffffffffffffffffffffff167c010000000000000000000000000000000000000000000000000000000063ffffffff871602179283905560408051848416815291909304909116602082015281517f1c411e9a96e071241c2f21f7726b17ae89e3cab4c78be50e062b03a9fffbbad1929181900390910190a1505050505050565b73ffffffffffffffffffffffffffffffffffffffff808416600081815260026020908152604080832094871680845294825291829020859055815185815291517f8c5be1e5ebec7d5bd14f71427d1e84f3dd0314c0f7b2291e5b200ac8c7c3b9259281900390910190a3505050565b73ffffffffffffffffffffffffffffffffffffffff83166000908152600160205260409020546126ab908263ffffffff6122d816565b73ffffffffffffffffffffffffffffffffffffffff80851660009081526001602052604080822093909355908416815220546126ed908263ffffffff61299a16565b73ffffffffffffffffffffffffffffffffffffffff80841660008181526001602090815260409182902094909455805185815290519193928716927fddf252ad1be2c89b69c2b068fc378daa952ba7f163c4a11628f55a4df523b3ef92918290030190a3505050565b60006003821115612799575080600160028204015b818110156127935780915060028182858161278257fe5b04018161278b57fe5b04905061276b565b506127a3565b81156127a3575060015b919050565b6000546127bb908263ffffffff61299a16565b600090815573ffffffffffffffffffffffffffffffffffffffff83168152600160205260409020546127f3908263ffffffff61299a16565b73ffffffffffffffffffffffffffffffffffffffff831660008181526001602090815260408083209490945583518581529351929391927fddf252ad1be2c89b69c2b068fc378daa952ba7f163c4a11628f55a4df523b3ef9281900390910190a35050565b60008183106128675781612869565b825b9392505050565b73ffffffffffffffffffffffffffffffffffffffff82166000908152600160205260409020546128a6908263ffffffff6122d816565b73ffffffffffffffffffffffffffffffffffffffff8316600090815260016020526040812091909155546128e0908263ffffffff6122d816565b600090815560408051838152905173ffffffffffffffffffffffffffffffffffffffff8516917fddf252ad1be2c89b69c2b068fc378daa952ba7f163c4a11628f55a4df523b3ef919081900360200190a35050565b6dffffffffffffffffffffffffffff166e0100000000000000000000000000000290565b60006dffffffffffffffffffffffffffff82167bffffffffffffffffffffffffffffffffffffffffffffffffffffffff84168161299257fe5b049392505050565b80820182811015610e3157604080517f08c379a000000000000000000000000000000000000000000000000000000000815260206004820152601460248201527f64732d6d6174682d6164642d6f766572666c6f77000000000000000000000000604482015290519081900360640190fdfe506972613a20494e53554646494349454e545f4c49515549444954595f4255524e4544506972613a20494e53554646494349454e545f4c49515549444954595f4d494e544544a265627a7a7231582079d585fcb69707899d8339c427657121083f4326a0142786b837870ef525668364736f6c63430005100032454950373132446f6d61696e28737472696e67206e616d652c737472696e672076657273696f6e2c75696e7432353620636861696e49642c6164647265737320766572696679696e67436f6e747261637429a265627a7a72315820305b7119fd375a82e1c659c804b5a44204b217a3119f576893bd46b5cb9228c564736f6c63430005100032",
  "linkReferences": {},
  "deployedLinkReferences": {}
}